:020000040801F1
:10200000C00A0020DD2B0108150703081507030887
:10201000AD1903081507030815070308150703087A
:102020001507030815070308150703081507030814
:1020300015070308C8B90308F905030815070308BD
:1020400015070308150703081507030815070308F4
:1020500015070308150703081507030815070308E4
:1020600015070308150703081507030815070308D4
:1020700015070308150703081507030815070308C4
:1020800015070308150703081507030815070308B4
:1020900015070308150703081507030815070308A4
:1020A0001507030815070308150703081507030894
:1020B0001507030899E9020831F4020839AB03084F
:1020C00035AB0308D9EB020845AB03083DAB030869
:1020D00009F4020841AB030871F40208DDF40208B8
:1020E0001507030815070308150703081507030854
:1020F000A91903081507030815070308150703089E
:1021000015070308CD25010815070308150703085F
:102110001507030815070308150703081507030823
:102120001507030815070308150703081507030813
:102130001507030815070308150703081507030803
:102140001507030815070308150703083D1B0308B7
:1021500055D002081507030859A703085FA703080D
:1021600015070308150703081507030815070308D3
:10217000002370B5404C05468AB0E36318B100886F
:1021800023600BF0DFFE3D4828F013F83C4E3D4B3A
:10219000304633603C4B736023F02CFB002130460B
:1021A00016F04AFA32A3D3E90023A062C4E9062359
:1021B00023F02BFBD4E9062319431043C4E906019D
:1021C000CDE900014FF0FF334FF0FF32A06A28F055
:1021D0003DF802224FF0FF31A06A28F03CF80120C0
:1021E0000BF032FC4FF4007300222849A06A28F05B
:1021F00084F8B0F5007F38D100239422CDE907336D
:1022000009933C23CDE9033205939623A06A03A9E1
:10221000069316F02FFB35B3287C0CF04BF80546DF
:10222000F0B9A06A28F04AF90BF0F2FF0BF0EEFBD0
:1022300020B14FF48070002108F004FC0BF0F6FB95
:1022400020B14FF40060002108F0FCFB23F0A0FB5C
:10225000012016F045FA0E4A0E49A06A23F0C8FA8A
:1022600028460AB070BDFF20D7E70725F8E700BF72
:102270000DD5015520000000200F0020690345EC1A
:10228000201F0020CDD80108301F0020201D002075
:1022900099570308D95703080348044B834202D0D7
:1022A000034B03B118477047AC0E0020AC0E002062
:1022B00000000000064B0749C91A891048BF0131C8
:1022C000491003D0044B0BB101481847704700BFB9
:1022D000AC0E0020AC0E00200000000010B5064C33
:1022E000237843B9FFF7D8FF044B13B10448AFF389
:1022F00000800123237010BD14270020000000007F
:102300005011040808B5054B1BB105490548AFF34A
:102310000080BDE80840FFF7CDBF00BF000000000F
:102320009011002050110408A3F5803A704700BFB7
:10233000174B002B08BF134B9D46FFF7F5FF0021FD
:102340008B460F461348144A121A28F04FFC0E4BC6
:10235000002B00D098470D4B002B00D09847002051
:10236000002104000D000D48002802D00C48AFF3F6
:1023700000801DF099FB200029001EF031F91DF0AE
:10238000BBFA00BF000008000000000000000000D1
:10239000C00A0020AC0E00202C2800200000000005
:1023A0000000000030B58BB06C46124D0FCD0FC44D
:1023B0000FCD0FC495E8030084E803000E4BD3F85B
:1023C0004C21120308D5D3F85021120A8DF8182099
:1023D000D3F850318DF81930684601F06FFA07488C
:1023E00000F09EFC03214FF4806001F073FC0BB001
:1023F00030BD00BFE0B603080080E00FC0175302F5
:1024000070B56C4DA6B008AC0FCD0FC40FCD0FC486
:1024100095E8030000264FF4403384E803000124CC
:102420004F2231460DF14900634D0393CDE9056616
:102430000796ADF810608DF8126028F0D7FB2146A2
:102440002A208DF848408DF84D408DF852408DF887
:1024500057408DF85C408DF861408DF866408DF8EE
:102460006B408DF870408DF875408DF87A408DF88E
:102470007F408DF884408DF889408DF88E408DF82E
:10248000934000F0B9FF10214FF4B06001F022FC3E
:1024900032464A4928468DF8176002F0E5F88DF873
:1024A00019004FF4B06000F0C1FF40F6E4430B9315
:1024B00040F20233ADF822309DF81930C0083246A0
:1024C000ADF81A000093284633463D498DF8216047
:1024D00002F0E4F8852248F201438DF84E2048F2DC
:1024E0000162ADF8483040F20113ADF8522080226D
:1024F000ADF84C30ADF85630ADF86030A0238DF813
:10250000582049F201028DF862304AF201130A9014
:10251000ADF85C20284608AA05A9ADF866308DF80C
:1025200010408DF80E408DF80D408DF851408DF81B
:102530005B408DF865408DF86A4002F0D5F812AA2C
:10254000284603A902F008F84FF48033EB601D4BD6
:10255000D3F820232243C3F82023D3F8202342F4C6
:102560008032C3F82023D3F820232243C3F820234A
:10257000D3F820232243C3F82023D3F82423224373
:10258000C3F82423D3F828232243C3F82823D3F8FD
:10259000282342F48032C3F828234FF40032AB6A78
:1025A00043F00203AB62084BC3F884215A6026B0A3
:1025B00070BD00BF08B7030800400059005A62020E
:1025C0008096980000C0035000E100E037B5104D40
:1025D000104CD5F888301B0707D101200EF000FB06
:1025E00002220D4B5A6203B030BD294668461EF0E8
:1025F00056F99DF80430BDF80020013324F813206B
:1026000048F69323238048F2AB632382E1E700BFBF
:1026100000400059AC260020006000590368314A90
:1026200023F47F4323F00703934213B53DD008D82A
:102630002D4A934219D002F5A022934231D002B024
:1026400010BD2A4A934240D002F510229342F6D19F
:10265000B0F805301B2BF2D1C379012BEFD10289E1
:10266000234B82B30822DA60E9E7224C20460EF0C1
:10267000DBFA00B1FEE7022120780EF00FFB0346E3
:1026800000B1FEE7A0220090114620780EF0E4FA97
:1026900000B1FEE7022120780EF014FB0028CED016
:1026A000FEE7027B144B1A70C9E7124C0221207816
:1026B0000EF0F4FA00B1FEE7022120780EF002FBE2
:1026C0000028BCD0FEE71022CDE74368DB07B6D573
:1026D00012221B210848094B007802B0BDE81040C7
:1026E0000EF044BBA0000601A0000100A000010301
:1026F00000400059DA0C002015270020AC260020ED
:102700007FB503681C4A23F47F4323F007039342F9
:102710002ED1052200211620184B0EF0F9FA00B137
:10272000FEE70DF1070102A80EF036FB014600B1ED
:10273000FEE7BDF80C3008225BBAADF810309DF80A
:102740000B3018208DF81230FF238DF81330FE2344
:102750008DF814309DF80A308DF81530BDF808302A
:102760005BBAADF8163004AB0EF0D2FA00B1FEE75A
:1027700007B05DF804FB00BFA000010030B70308FC
:1027800010B5274C01F06EF801F082FA236F23F0A8
:10279000070343F0030323671EF02FF8214B0020AB
:1027A0009B6ADB015EBF4FF480321F4B9A62D4F804
:1027B000203123F0070343F00203C4F82031D4F89A
:1027C000283123F0070343F00203C4F82831D4F87A
:1027D000403123F0030343F00103C4F84031D4F83F
:1027E000603123F0030343F00103C4F86031D4F8EF
:1027F000403223F0030343F00103C4F84032D4F81D
:10280000003223F0070343F00103C4F80032D4F888
:10281000083223F0070343F00103C4F8083210BD67
:10282000008000500040005A0060005A07B501A81F
:1028300002F050F99DF80530012B14D19DF80430B9
:102840008BB94FF48012134B1349586E03F5805324
:102850005A664B6B23F0E05343F040634B63C30273
:102860005CBF0E4B5A6604F031F803F0CDFF1FF049
:1028700099F803F0F1FF1FF08FF8FFF781FF03F0E5
:10288000D9FF00F0A9FA00F0F1FA03B05DF804EB0B
:1028900004F0C0BA008000500040005A00A0005070
:1028A00008B5064B834207D1054B1B7823B1C8B24C
:1028B0000EF01CFA00B1FEE708BD00BFA811002011
:1028C0001627002030B500250368344A23F47F43DF
:1028D00023F0070385B0934204460295ADF80C50EF
:1028E00035D002F5802293420CD0A2F1827293423D
:1028F00051D12B4B1B78002B4DD005B0BDE830409B
:102900001FF069B9B0F805301F2B44D1FF2304A98B
:102910001A4611E903001DF0F6FE012814BF41F22A
:10292000FC151F4B4FF01F0108BF187005F0FC028B
:1029300020790EF003FA00B1FEE71A4900902379DE
:10294000194A0968194800F065F820B3FEE7B0F8A5
:102950000530B7EE047A07EE903AF8EE677AB0F8F1
:10296000073067EE877A013307EE103AB8EEC77A80
:1029700067EE877AB1EE047A67EE877AFAFE677AB5
:10298000FCEEE77A17EE903AB3F57A7F38BF4FF452
:102990007A73044A136005B030BD00BFA000060280
:1029A00016270020C00A0020A1280108A811002035
:1029B000002209490B684BB1834204D1836A4AB1B2
:1029C0009362012070471A469B6AF4E70028F5D00D
:1029D000184670470B60F4E7E011002010B504467C
:1029E00098B104F04FFF2046FFF7E2FF10B194F8D2
:1029F0002C300BB9002010BD1DF01BFF044A1368DA
:102A0000013B13601DF01BFFF4E72220F3E700BF3A
:102A1000E41100202DE9F04385B005469146984623
:102A20000E469DF8307009B9002F57D12846FFF7A0
:102A3000D5FF044690BB85F82C00686305F016F8B6
:102A400086422FD904F0B2FF2146844640F2E73097
:102A50004FF47A720023E6FB0C011CF0B5FD4FF039
:102A6000FF3200231CF0B0FD2B46E88611462846B5
:102A7000CDE900441A4A1FF00CF8044670B9194A0F
:102A8000C5E90898136885F82D702E6323B31A469C
:102A90009B6A002BFBD195620023AB62204605B0F8
:102AA000BDE8F08347B12B4631462846CDE90044C6
:102AB0000B4A04F09FFFE0E7304603A904F07CFFD7
:102AC00004460028EAD12B462846CDE90077044A7F
:102AD00003991EF0BAFFD0E71560DDE72124DDE79A
:102AE000E92A0108E011002091F82C3013B50C46BA
:102AF00083B98B8ECA8E93420ED243B9CDE900338F
:102B000020460B46104A4FF0FF311EF082FFA38E85
:102B10000133A38602B010BD52B191F82D307BB1C4
:102B200001230093D1E908232046096BFFF772FFC8
:102B30000123064A84F82C30136801331360E9E757
:102B4000084604F09FFEF3E7E92A0108E41100209B
:102B500070B5104D2B681BB100260F4B1C6804B9D3
:102B600070BD94F82C3093B11DF063FE2B6884F88F
:102B70002C60013B2B601DF062FE94F82D3013B9E0
:102B80002046FFF715FFD4E9083120469847A46A8C
:102B9000E5E700BFE4110020E0110020034B1B68B3
:102BA000002B14BF04200120704700BFE411002057
:102BB000024B1868B0FA80F040097047E411002019
:102BC0000348044A0449121A92101DF0A4BD00BF24
:102BD00050150408501504082C28002008B500F0F2
:102BE0002FF8FFF7EDFF124B12498B4212D3002052
:102BF000114B12498B4218D3FFF79AFB186850F813
:102C00002240586840F82240013298688242F5D349
:102C10000C33EAE70022F8E71C6844F8220001328E
:102C20005C68A242F8D30833E4E70022F8E700BF6B
:102C3000581104086411040864110408641104089C
:102C40004FF480414FF0FF30114B124A10B59A609B
:102C5000D3F8882042F47002C3F888200E4A9166A7
:102C60000E4901F5005210660D4850660220C3F867
:102C7000D000BFF34F8FBFF36F8F01244FF4403369
:102C80000848C0F88041D36004600B6110BD00BFEC
:102C900000ED00E00020010800900050008000449A
:102CA000F7FF370000E100E0014B1868704700BFF4
:102CB000C80A0020084B1B6F03F00703022B04D047
:102CC000032B05D0012B05D0FEE7044B1868704795
:102CD000034BFBE70348704700800050C80A002000
:102CE000D00A0020002D310108B5FFF7E3FF054BA6
:102CF0001B6FC3F303330133B0FBF3F0024B1860D7
:102D000008BD00BF00800050C40A00200048704782
:102D100000B4C404014B1868704700BFD00A0020FB
:102D2000054B1860054B1B6F03F00703032B01D104
:102D3000FFF7DABF704700BFD00A002000800050C4
:102D400000487047002D31014FF0B4439868C0F33C
:102D500004400C280AD8DFE800F00B09090909092A
:102D6000072119091B1D1F000F48704700207047DD
:102D70009B6803F04073B3F1807F11D0B3F1007F03
:102D800010D00A4A002B08BF104670470848704709
:102D90000848704708487047084870470848704717
:102DA0000848704708487047405DC60000093D006C
:102DB000C0EA210180BA8C010048E801005A620291
:102DC0000024F40080841E0040420F00014B18686C
:102DD000704700BFCC0A00204FF000639B6A10B51B
:102DE00003F17842B2F5903F11D21968094A914235
:102DF0000DD1094C227812F0FD0F01D0002010BD3A
:102E0000DB6998470028FAD101232370F6E74FF4D5
:102E10008170F4E707B0CD5E172700204FF0005314
:102E2000074A1A60BFF34F8F0649074BCA6802F47E
:102E3000E0621343CB60BFF34F8F00BFFDE700BFDD
:102E400002020FF000ED00E00400FA050346054A17
:102E50000549106803448B428CBF4FF0FF3013606C
:102E6000704700BFD40A002000000420024B1968FC
:102E7000024B186814F0F2BFD80A0020F80A0020AC
:102E800070B59400224605460E4628F009FC431C06
:102E90000AD058B922463146284627F07DFE002840
:102EA000034808BF002070BD0248FCE70248FAE76B
:102EB00010E000F021E000F024E000F010B504463E
:102EC00028F0EAFB431C10D088B901F02FFE2346FE
:102ED00020F003002044984201D1002010BD53F897
:102EE000042B0132F7D00348F8E70348F6E703481C
:102EF000F4E700BF0EE000F021E000F024E000F075
:102F000008B51DF08FFC014B186008BDD8180020D3
:102F1000014B18681DF08ABCD8180020044BD3F868
:102F20008420D206FBD4D3F88400C0F3811070470C
:102F30000040005038B5104B0546D3F880300C46A1
:102F400003F00303022B0BD0032B0DD0012B0FD169
:102F5000FFF7B0FE0E2305B1286004B1236038BD31
:102F6000FFF7F2FE0723F6E7FFF79EFE0623F2E7E0
:102F700000231846EFE700BF0080005038B5184B1B
:102F80000546D3F820010C4600F00700062823D898
:102F9000DFE800F0040A0E16121A1E00012305B124
:102FA000286004B1236038BDFFF77EFE0523F6E7F5
:102FB000FFF7B0FE0323F2E7FFF7C6FE0723EEE7B5
:102FC000FFF7BEFE0223EAE7FFF76EFE0623E6E701
:102FD000FFF7A0FE0423E2E700231846DFE700BF67
:102FE0000080005038B5174B0546D3F828310C4601
:102FF00003F00703013B052B20D8DFE803F00313A0
:103000001B0F0B17FFF750FE052305B1286004B115
:10301000236038BDFFF748FE0623F6E7FFF794FE6E
:103020000723F2E7FFF776FE0323EEE7FFF772FED2
:103030000423EAE7FFF784FE0223E6E700231846AD
:10304000E3E700BF0080005073B50D460021114B2F
:103050000191D3F88041064604F00304022C13D0FA
:10306000032C0CD0012C13D101A8FFF787FF1024EB
:103070000EB1019B336005B12C6002B070BDFFF74B
:1030800063FE07240190F3E7FFF75AFE0190EFE794
:103090000C46EDE700800050002337B50193164B36
:1030A0000546D3F820320C4603F00703042B21D841
:1030B000DFE803F0030B11161B0001230DB1019A89
:1030C0002A6004B1236003B030BD002101A8FFF7DE
:1030D00089FF1223F2E7FFF737FE07230190EDE7A0
:1030E0001DF026FB0A230190E8E7FFF76FFE092396
:1030F0000190E3E70023E1E70080005038B5104B72
:103100000546D3F840310C4603F00303022B0BD0E5
:10311000032B0DD0012B0FD11DF00AFB0A2305B1A3
:10312000286004B1236038BDFFF750FE0923F6E79D
:103130001DF001FB0C23F2E701230020EFE700BFA5
:1031400000800050002337B50193164B0546D3F895
:1031500060320C4603F00703013B032B1FD8DFE866
:1031600003F0020E1914002101A8FFF707FF102336
:103170000DB1019A2A6004B1236003B030BD002173
:1031800001A8FFF7BBFF1123F2E7FFF7DDFD0723DF
:103190000190EDE7FFF7D4FD02230190E8E700235B
:1031A000E6E700BF00800050002337B50193164BBF
:1031B0000546D3F894320C4603F00703013B032B7A
:1031C0001FD8DFE803F0020E1914002101A8FFF751
:1031D000D5FE10230DB1019A2A6004B1236003B01B
:1031E00030BD002101A8FFF789FF1123F2E7FFF7A7
:1031F000ABFD07230190EDE7FFF7A2FD022301904D
:10320000E8E70023E6E700BF0080005038B5144B24
:103210000546D3F800020C4600F0070004281BD82E
:10322000DFE800F003090D111500012305B1286046
:1032300004B1236038BD1DF07BFA0A23F6E7FFF7DF
:10324000C5FD0923F2E71DF076FA0C23EEE7FFF740
:103250004BFD0F23800AE9E700231846E6E700BF8D
:103260000080005038B5144B0546D3F808020C46D0
:1032700000F0070004281BD8DFE800F003090D1157
:103280001500012305B1286004B1236038BD1DF08D
:103290004FFA0A23F6E7FFF799FD0923F2E71DF03D
:1032A0004AFA0C23EEE7FFF71FFD0F23800AE9E738
:1032B00000231846E6E700BF0080005038B5104BE9
:1032C0000546D3F840320C4603F00303022B0BD023
:1032D000032B0DD0012B0FD11DF02AFA0A2305B1C3
:1032E000286004B1236038BDFFF770FD0923F6E7BD
:1032F0001DF021FA0C23F2E701230020EFE700BFC5
:103300000080005038B5104B0546D3F860310C46AC
:1033100003F00303022B0BD0032B0DD0012B0FD195
:103320001DF006FA0A2305B1286004B1236038BDF8
:10333000FFF74CFD0923F6E71DF0FDF90C23F2E73A
:1033400001230020EFE700BF00800050B0F5207F90
:103350001FD009D8B0F5007F15D003D868B1B0F5FB
:10336000C07F0AD000200CE0B0F5607FFAD10B4B93
:10337000D3F88000C0F3011003E0084B186FC0F3CE
:10338000033001307047054BD3F89000C0F3046060
:10339000F7E7024B186FC0F38020F2E7008000507F
:1033A00002464FF48030104B10B598660020FFF7AE
:1033B000CDFF504341F671320C4BDC69DA635A6839
:1033C00004F4803422F4401259B90949884294BF68
:1033D00000200120000502435A600CB10022DA638C
:1033E00010BD0449F2E700BF0090005000000350F8
:1033F000005A6202002D3101430905D0012B0CD087
:10340000022B084B18BF002300F01F0039B103F551
:103410008053012282401A607047034BF4E703F5A2
:103420000053F6E768800050648000501FB500210B
:1034300080280446CDE9001100F0998029D80028A1
:1034400000F09980A0F120043D2C35D83D2C33D8D4
:10345000DFE804F091999199A9A9A9A9A999B33C88
:10346000C9603C999999323232323232323299996A
:103470009968D39932323232323232323232323287
:1034800032A9919191CE3C3CD8774DAE3232323256
:103490003288B0F5B06F00F090802DD8B0F5207F65
:1034A00071D00CD8B0F5C07F65D0B0F5007F65D085
:1034B000B0F5807F00F08680009804B010BDB0F5B4
:1034C000607F6BD00DD8B0F5407FF5D1FFF70CFCD5
:1034D00002464FF42070FFF739FFB2FBF0F25208BA
:1034E0005AE0B0F5806F5ED0B0F5A06FE4D1002156
:1034F0006846FFF7D1FDDFE7B0F5106F78D016D83A
:10350000B0F5E06F79D00AD8B0F5C06F6BD0B0F5E8
:10351000D06FD1D100216846FFF778FECCE7B0F537
:10352000F06FC9D100216846FFF7ECFEC4E7B0F5A3
:10353000406F3DD013D8B0F5206F63D0B0F5286F41
:10354000BAD10021324B0391D3F8703203F0030358
:10355000012B02D103A8FFF7D1FD039B3CE0B0F59E
:10356000486FA9D100216846FFF71EFEA4E7FFF7C8
:10357000A1FB0090A0E7FFF7B7FBFAE7FFF79AFB84
:103580000246204604E0FFF7AFFB02464FF42070EE
:10359000FFF7DCFEB2FBF0F200928DE701A8FFF727
:1035A000C9FC019AEDE700216846FFF7E7FC83E7D5
:1035B00000216846FFF716FD7EE700216846FFF709
:1035C00043FD79E74FF0E02302911B695B0705D5C6
:1035D000FFF78AFB0290029B00936DE703A902A804
:1035E000FFF78CFDF7E700216846FFF787FD63E7EB
:1035F00000216846FFF736FE5EE700216846FFF7C8
:103600005DFE59E700216846FFF79CFD54E700BFC7
:103610000080005008B58020FFF708FF034B984258
:103620009EBF4FF48032024B1A6708BD005A6202F7
:1036300000A000501FB503460020B3F5807F019025
:1036400000F0C18064D85D2B55D84C2B07D82D2BAA
:1036500048D8232B2CD8019805B05DF804FB4D3BCE
:10366000102BF8D801A252F823F000BFBD37010893
:1036700057360108573601085736010873370108D5
:1036800057360108573601084138010891370108BB
:10369000373701083738010857360108573601080F
:1036A0005736010857360108573601084B380108CC
:1036B000243B092BCFD801A252F823F0BD370108D3
:1036C000BD370108BD370108BD370108BD37010806
:1036D00057360108B3370108573601085337010838
:1036E000F33701083D2B7FD03E2BB4D1002001A938
:1036F000FFF7E4FDAFE7802BADD1594B1B6F03F013
:103700000703013B032BA6D8DFE803F0514E858D5C
:10371000B3F5F06F68D021D8B3F5B06F49D00FD8AA
:10372000B3F5607F00F0838095D3B3F5806F45D00B
:10373000B3F5A06F8FD1002001A9FFF7ADFC8AE798
:10374000B3F5D06F55D0B3F5E06FCFD0B3F5C06F00
:1037500081D1002001A9FFF7D1FC7CE7B3F5206FF0
:103760006ED00BD8B3F5086F48D0B3F5106F7FF467
:1037700072AF002001A9FFF775FD6CE7B3F5406F4C
:1037800059D0B3F5486F60D0B3F5286F7FF463AFBD
:10379000334BD3F8703203F00303012B5AD0022BC2
:1037A0000CBF1523002300E00523019353E70223F8
:1037B000FBE7002001A9FFF747FC4CE7002001A927
:1037C000FFF7DCFB47E74FF0E02302901B695B0744
:1037D00005D5FFF789FA0D230393039BE5E703A9BA
:1037E00002A8FFF78BFCF8E7002001A9FFF78AFD8C
:1037F00031E7002001A9FFF709FD2CE7184BD3F8AA
:10380000003103F00303022B07D0032B09D0012B57
:103810000BD1FFF77FFA0323C7E7FFF7D7FA092396
:10382000C3E71CF083FF0823BFE70123BDE701A91D
:10383000FFF780FB0FE7002001A9FFF7D3FB0AE7A2
:10384000002001A9FFF77EFC05E7002001A9FFF792
:10385000ABFC00E7002103A8FFF750FC1123A4E70D
:10386000008000504FF48012034B5A664FF48032B0
:10387000024B9A62704700BF009000500050005AFF
:1038800008B5FFF7D7FE092811D00A38012802D958
:103890004FF6FF7008BD4FF48002064B5A6603F5E1
:1038A000D8335B6ADB07F3D54FF4FA70F2E7024BCB
:1038B0001888EFE700900050C80C002038B5044687
:1038C0008020FFF7B7FE032800F083804FF48012BA
:1038D000524B4FF0A0615A6645F60E02504BC3F8AA
:1038E0008020504A91624FF4803102F580529162FB
:1038F0009A6DD203FCD4996D11F08041FBD1D4E9CB
:103900000002120542EA0062E07B0243207B42EAA9
:103910000042607B42EA0032A07B42EA80121A61D8
:103920009869D4E90452120642EA856200F0004028
:103930000243A07EE57E0243207E42EA0042607E92
:1039400042EA00229A611A6AE06922F00F0242EA12
:103950008502354D00283DD11A6294F82420996AD9
:1039600094F82000D200294042EA40120A4394F819
:10397000211042EA011242F480329A622B49284A0D
:10398000936D31EA0303FBD14FF0807125488162CA
:103990001369A56823F4700343EA055313614FF0DC
:1039A0000043836194F822300BB9214B996294F85B
:1039B00023303BB94FF480321D4B9A62184A936D05
:1039C0005B00FCD494F825301BB1154B194AC3F8A1
:1039D000802038BD024342F0080202281A6208D152
:1039E00019614FF40852996113484FF47F411CF05C
:1039F000E2FE0B4994F822308A6A94F820001B06F4
:103A00002A4043EA4013134394F8242043EAC203B4
:103A100094F8232043EA02438B62D3E700900050DE
:103A20000040005A0050005AC7FFFEFE030001008C
:103A30000060005AF1A7FFFF3440005A70B5194CDE
:103A4000FF28A66A2BD8A36D4FF0807113F4803F36
:103A500018BF4FF48032144B18BF9A629962134A10
:103A6000A36992F9005023F47F03054423F47F43B4
:103A700043EA002385F3080543EA0543A361324680
:103A80000B481CF098FEA36DDB0301D4002070BD31
:103A900032464FF4803106481CF08DFEF6E72120B7
:103AA000F5E700BF0040005A0050005ADB0C002030
:103AB0002840005A014B93F900007047DB0C0020AE
:103AC0004FF4803311481249826A8B62836D03F090
:103AD0000303032BFAD14FF080730E488B620B4B1C
:103AE000996D30EA0101FBD1012009490865996D02
:103AF0008907FCD4054B996D8807FCD5996D89071A
:103B0000FCD5054905481CF056BE00BF0040005AD0
:103B10000050005A03000100000001012840005A33
:103B2000014B1880704700BFC60C00204FF4800284
:103B300008B5184B5A660223174A5360936813F46A
:103B40008033FBD1012822D1FFF7E4F8134B9842D0
:103B500015D003F5122303F5F863984213D0104BE8
:103B600000EB8002400AB3FBF0F3520A0A49CA6232
:103B70000B6301234B620022074B5A6008BD45F6D8
:103B80007A13084AF2E745F61A03074AEEE753624A
:103B9000F1E700BF009000500040025000F04902E1
:103BA00064666666D8B80500BBCF0500B0F5207F17
:103BB00010B50C465DD008D8B0F5007F4ED003D8C4
:103BC000C0B1B0F5C07F15D010BDB0F5607FFBD19E
:103BD0002C4B4C1ED3F8FC202B4912F0807F4FEA6F
:103BE000041427D1D1F8803023F030032343C1F8E7
:103BF0008030E9E71CF0EEFD1CF0FAFD4FF4803157
:103C0000224B214A1967136F013C23F4704343EAA6
:103C100004331367FFF768F80446FFF77FF9C0F134
:103C2000020120461CF0DEFD00F042F8BDE8104025
:103C3000FFF7F0BCD3F8FC2022F08072C3F8FC2020
:103C4000D1F8802022F030022243C1F88020D3F83E
:103C5000FC2042F08072C3F8FC20B5E70A4A4C1EF3
:103C6000D2F8903023F0F85343EA0463C2F890305E
:103C7000AAE7054A4C1E136F23F4806343EA8423AA
:103C80001367A1E700ED00E00080005000900050B5
:103C900008B50121022000F0C5FA1CF09BFD1CF0C4
:103CA000A7FD4FF48032014B1A6708BD0090005009
:103CB00008B54FF4C070FFF7B9FBBDE808400449F0
:103CC000884294BF012102214FF42070FFF76EBF9C
:103CD00080F0FA02B0F5807FF8B50C4600F0538111
:103CE0006BD85D285DD84C2804D82D2844D82328CB
:103CF00028D8F8BD4D381028FBD801A353F820F080
:103D0000673F0108F33C0108F33C0108F33C01085C
:103D1000573E0108F33C0108F33C01081D4101082E
:103D20008F3E0108E73D0108FD400108F33C010812
:103D3000F33C0108F33C0108F33C0108F33C0108A3
:103D40003D41010824380928D3D801A353F820F0B5
:103D5000673F0108673F0108673F0108673F0108A7
:103D6000673F0108F33C0108473F0108F33C0108A5
:103D70001D3E0108374001083D2800F04C813E28D7
:103D8000B7D1093C032C8CBF0021B34BB34A98BF79
:103D9000195DD2F8403223F003030B43C2F84032DE
:103DA000A7E78028A5D18B1E062B00F2C980DFE88B
:103DB00003F0C4B2C77FC7C7C100B0F5F06F00F011
:103DC0002A813BD8B0F5B06F00F0BD801BD8B0F5AC
:103DD000607F00F06D818CD3B0F5806F00F0C38000
:103DE000B0F5A06F85D1073C0B2C8CBF00219C4BFC
:103DF0009A4A98BF195DD2F8203223F007030B438B
:103E0000C2F8203275E7B0F5D06F00F01481B0F53C
:103E1000E06FB6D0B0F5C06F7FF46BAF093C032CF8
:103E20008CBF00218F4B8D4A98BF195DD2F840316D
:103E300023F003030B43C2F840315AE7B0F5206F7B
:103E400000F06C8117D8B0F5086F00F02181B0F553
:103E5000106F7FF44EAF093C062C8CBF0021824BC3
:103E60007E4A98BF195DD2F8083223F007030B434E
:103E7000C2F808323DE7B0F5406F00F03F81B0F581
:103E8000486F00F05B81B0F5286F7FF432AF112CE2
:103E900000F06481A4F115035C425C4164006F4A48
:103EA000D2F8703223F003032343C2F8703220E7C4
:103EB000002502264FF480370121022000F0B2F9DC
:103EC0001CF088FC1CF094FC684B644A1F67136F5D
:103ED00023F0070333431367FEF706FF0646FFF799
:103EE0001DF8C0F1020130461CF07CFC01210020CD
:103EF00000F0D8F9FFF7DCFEFFF78CFB002D7FF414
:103F0000F8AE032C7FF4F5AE594B5A4A9F62936D7D
:103F10005C00FCD4EDE64FF48012544B0E465A661A
:103F20004FF48032534B9D6A03F58053C5F300650F
:103F30009A62BFE700250426BCE700250126B9E701
:103F400000252E46B6E7023C0E2C8CBF00214A4BC2
:103F5000424A98BF195DD2F8803123F003030B4326
:103F6000C2F88031C5E6023C052C8CBF0021434BD2
:103F70003A4A98BF195DD2F8203123F007030B436A
:103F8000C2F82031B5E6A1F10904082C3FF6B1AE24
:103F900001A353F824F000BFBD3F0108BD3F010855
:103FA000F33C0108BD3F0108EB3F0108F33C010869
:103FB000F33C0108F33C0108BD3F01084FF4803297
:103FC000264B2F49586E03F580535A664B6AC0033F
:103FD00043F001034B625CBF2A4B5A664FF0E0226C
:103FE000136923F00403136183E64FF480321B4B03
:103FF0002349586E03F580535A664B6A23F0010338
:104000004B62C1035CBF1F4B5A664FF0E02213693D
:1040100043F00403E7E7093C032C8CBF00211A4B53
:104020000E4A98BF195DD2F8603123F003030B43A9
:10403000C2F860315DE6093C062C8CBF0021134BB1
:10404000064A98BF195DD2F8003223F007030B43EC
:10405000C2F800324DE600BF6CBA03080080005081
:1040600049BA03086CBA030865BA03080090005007
:104070000060005A0040005A76BA030870BA03087C
:1040800000C0075000A000506CBA030865BA0308CE
:10409000CC1E062C8CBF0021314B324A98BF195DD3
:1040A000D2F8003123F003030B43C2F8003120E6BD
:1040B0002D49063CD1F8FC2012F080721EBFD1F8C9
:1040C000FC3023F08073C1F8FC30082C8CBF00203A
:1040D000264B244998BF185DD1F8803023F00303A4
:1040E0000343C1F88030002A3FF403AE1E4AD2F8E1
:1040F000FC3043F08073C2F8FC30FAE5023C052C3A
:104100008CBF00211A4B174A98BF195DD2F828318D
:1041100023F007030B43C2F82831EAE5023C0F2CD9
:104120008CBF0021134B0F4A98BF195DD2F8603243
:1041300023F007030B43C2F86032DAE5023C0F2C90
:104140008CBF00210C4B074A98BF195DD2F89432FE
:1041500023F007030B43C2F89432CAE501249EE61C
:104160005EBA03080080005000ED00E055BA030875
:1041700070BA030839BA030839BA0308034B586800
:10418000C0F30800003818BF0120704700ED00E0C0
:10419000024A536B0342FCD1704700BF00400950F4
:1041A000044A4178536F23F4407343EA0123536771
:1041B000704700BF004000500A4A10B5136904461A
:1041C00043F00403136103F039F91CF03BFB30BFEB
:1041D0001CF039FB03F066F91CB9BDE81040FEF78E
:1041E00083BD10BD00ED00E0084A10B51369044618
:1041F00043F00403136103F021F930BF03F052F9D7
:104200001CB9BDE81040FEF76FBD10BD00ED00E029
:10421000034A0179D36E23F030030B43D366704712
:1042200000400050F8B504461C4BD3F88420D1065A
:10423000FBD4D3F88430C3F381139C422CD0FEF717
:1042400039FD012C064602D121461CF0CBFA1CF0A8
:10425000E9FA4FF00072124B07465A6620461CF0EE
:10426000F5FA4FF480630D4D621E93402B676B6E21
:104270009A0103D4D5F884309B060AD538461CF041
:10428000D5FA022C08D13046BDE8F84000211CF0D8
:10429000A9BAD5F88430EAE7F8BD00BF0040005065
:1042A0000060005010B50C4608B9FEF703FD074B3F
:1042B00021461B783BB1064B984204D80120BDE84B
:1042C0001040FFF7AFBF0220F9E700BF182700201A
:1042D000005A62020278034B012100201A70FFF796
:1042E000E1BF00BF182700204FF0004238B5244B33
:1042F000244C5A664AF6CD33656C014605F001053B
:10430000236428BB0120FFF743FF6368DB0715D553
:104310001D4B586008461D4B226BD2070CD49842A7
:1043200008D1072415B1174B194A1A6425F0A6FFC6
:10433000204638BD0130EFE79842F2D00024F1E783
:104340000132236B13F0080305D08A42F8D1E8E765
:1043500000220E49F5E78A42E3D020210A4A916201
:104360000121A2F5805251600649084A886A8006F8
:1043700003D49342D5D00133F8E79342DDE700BF81
:1043800000900050004009500060095040420F006A
:104390003254FFFF4FF0004238B5164B01465A66C3
:1043A0004AF6CD33144C154A656C236443780B20D0
:1043B0005B0043F00103D363FFF7EAFE63688A788A
:1043C00023F4F87343EA02136360CA784B7943EA33
:1043D0000223A3600A798B7943EA022323610878D8
:1043E000FFF782FFEB0744BF054B236425F046FF30
:1043F000012038BD0090005000400950004000509E
:104400003254FFFF4FF00042124B70B55D6E03F562
:1044100080535A664AF6CD3304460F4980204E6CCD
:104420000B64FFF7B5FE0B6A23F00F030F2C94BF4C
:10443000234343F00F030B62F30744BF074B0B64A6
:10444000002DA2BF4FF00042054B5A6625F016FF23
:1044500070BD00BF00800050004009503254FFFF83
:1044600000A000504FF00042104B70B55D6E03F598
:1044700080535A664AF6CD3304460D4980204E6C6F
:104480000B64FFF785FE0B6A23F4F85343EA042319
:104490000B62F30744BF074B0B64002DA2BF4FF024
:1044A0000042054B5A6625F0E9FE70BD00800050C1
:1044B000004009503254FFFF00A000502DE9F041A8
:1044C00005460F461E4690464AB101233022194C3C
:1044D0008B4002FB004436B304F5825423600F2165
:1044E000072F05EB450388BFA7F108044FEA031324
:1044F000114895BFBC00A40004330C3308FA04F241
:10450000A14018441CF0A3F9B8F1000F09D1012310
:104510003021084ABB4001FB05223EB102F5825220
:104520001360BDE8F08104F50154D7E702F50152AC
:10453000F6E700BF00C0035030C003504369DA0102
:10454000FCD4012300F50050024A436053689B07E6
:10455000FCD470470040005970B504461546FFF77B
:10456000EDFF0B784A7803F0070343EAC203CA78E9
:1045700043EA02238A78120102F070021343C4F85E
:104580008030E26A0B7922F0170203F0070313432D
:104590004A79120102F010021343E3621E4B2A46CD
:1045A0009C4225D0012004F5805358601A4B00220C
:1045B0009C422AD08B79A26153BB70BD12F8023C99
:1045C00012F8040C5B0443EA002312F8050C0343C1
:1045D00012F8030C000400F48030034306F12800B5
:1045E00044F820300136102E02F10502E6D1D9E759
:1045F0000026F8E703EB8306AE5D16B100FA03F67A
:1046000032430133102BF5D1D4E713460435F9E7D3
:104610000823E360D1E700BF00400059084608B511
:1046200069B92A20FEF702FFB0B10C4B984206D9B7
:104630000B4B9B68C3F302730133B0FBF3F0094BE0
:1046400000F5742000F23F20B0FBF3F001387F2822
:1046500028BF7F20C0B208BD0120F0E7005A6202E7
:104660000040005940420F000B4B10B5994228BF43
:1046700019460C461AB92A20FEF7D8FE0246631ED8
:104680001344B3FBF4F0A34228BF00F1FF3003282A
:1046900028BF0320C0B210BD005A620210B51048F6
:1046A000104C002B08BF04468C4228BF0C461AB998
:1046B0002A20FEF7BBFE02469DF8083040F2FF308C
:1046C0000133B2FBF3F2631E1A44B2FBF4F3A242CD
:1046D00028BF03F1FF33984228BF184610BD00BF22
:1046E00080969800404B4C002DE9F04F2DED048B47
:1046F000DFF844830C4687B0154641460022064643
:10470000FFF7B2FF6779874238BF07463046FFF7A9
:1047100015FF2079FFB250B92A20FEF787FE4045E9
:10472000014628BFB0FBF7F13046FFF777FFE3788B
:104730003A071B0102F0E04203F030031343000488
:10474000227800F4FE0003430AB143F002036278CA
:104750000AB143F00403A2780AB143F00803B3603E
:10476000E38822893361638943EA02433362A84BB9
:104770009E4200F04881012306F58056736007B021
:10478000BDEC048BBDE8F08FD4F8842108F1050955
:10479000002B7CD18344DBF84840C4F30234631E11
:1047A000012B9C4B00F2E180DFED9B7AD3F8804136
:1047B000A4B223044FF0010300F1B24000F58040A1
:1047C000806C24F4C04BC0F3820000F1010E03FAA8
:1047D0000EF309EE103A4FEA8B4BB8EEC99AF6EE9B
:1047E000008A8C4B48BF4BF0004B002840F0DB8028
:1047F000D3F88C311BB208EE103AB8EEC88A38EE06
:10480000278ABCF1000F40F0E58005A8039100F075
:1048100061F9DFED827A28EE278A03999FED807A8D
:10482000C7EE097A9FED7F7A67EE877AB1EE007A5C
:10483000BBF1004F48EE077A0BD0DFED7B6A07EE45
:10484000104A37EEA66ABAEEE87AF0EE667A57EECC
:10485000067AF5EEC07AF1EE10FACBBFF1EE677A88
:1048600078EEE78A77EEE87AFDEEE87AC8BFFDEEEB
:10487000E77A17EE903AB3F5003FC0F2BA806FEADC
:104880005B436FEA4343624C4FEA091023504FEAFF
:10489000091202F1B242C1F3090102F580425160EE
:1048A00008F101081435B8F1020F3FF464AF00229B
:1048B0002B78DFF85CB15D485D49AC68934218BF66
:1048C0000146009758460393FFF7E8FEA1B20BEBB1
:1048D0000814A26C039B02EA0A0203F0030E4EEADC
:1048E000020E6A7895F803C0920002F01C024EEAAC
:1048F000020EAA7881424FEA023202F4E0424EEA06
:1049000002024FEA0C4E0EF4E02E42EA0E0295F837
:1049100010E038BF01464FEA4E5E0EF4600E42EAE8
:104920000E0295F804E04FEA08104FEA0E7E0EF0F2
:10493000405E42EA0E02A264A26C364CC2F302321E
:10494000013A042A0ED80FF2080E5EF822F000BFDA
:104950006549010865490108654901088947010859
:1049600089470108D4F8802110E7032C0AD1D3F835
:104970008041D3F88C31240C1B1407EE903AF8EEEA
:10498000E77A16E7042CD3F884410BBFD3F88C31B7
:10499000D3F88C311B141B1407BFA4B25B00240C8A
:1049A00003EB4303E9E7D3F89001D3F8883100B271
:1049B00007EE100AB8EEC77A1BB277EE677A69EE97
:1049C000286A08EE103A87EEA67AB8EEC88A38EE62
:1049D000078A16E7D5ED037ADFED166AF8EE677AF7
:1049E00087EEA67AF7EE046AC6EE877A27EE888A03
:1049F00014E713F5003FAABFC3F311034BF40033D0
:104A000043EA0B033FE74FF00008DFF830A04AE726
:104A1000004000590080E00F000000003D3B843F53
:104A2000000080430000204400000049404B4C003F
:104A30008096980000007A44005A6202E08F18CFF6
:104A40004FF48032054B9A6641F6713203F51C3300
:104A5000DA63012203F50053DA60704700900050DA
:104A600041F671320121064BDA6303F50052D16041
:104A70000022DA634FF48032A3F518339A66704748
:104A800000000350013831289ABF024B185C002007
:104A9000704700BF85BA030838B5C2F3062504463F
:104AA00002F0070241B942EA052242F440220634EC
:104AB000074B43F8242038BD114628461BF0F9FE69
:104AC00002462846FFF7DEFF163442EA0022EFE7EF
:104AD000008003504FF48032064B5A6603F5E623FC
:104AE0009B69C3F38512827003F03F021B0B427077
:104AF000037070470090005040F6B732064B5B6879
:104B00009BB293429FBF4FF47A72B3FBF2F3034A16
:104B1000D05C88BF002070470080E00FB7BA030860
:104B2000014B986CD96C70470080E00F0120034B5B
:104B30009B680A3303F01F03984070470080E00F22
:104B4000034B5A68D20702D5DA69002AF9D17047B7
:104B500000800A50054B9A689107FCD45A68920766
:104B6000F9D4DA69002AF6D1704700BF00800A50F4
:104B700008B5FFF7E5FF0222014B1A6108BD00BF2F
:104B800000800A5008B5FFF7E5FF0122024B03F54C
:104B900080514A601A6108BD00800A5008B5044B74
:104BA0005968012903D1FFF7E3FF024B596008BDA3
:104BB00000800A5000A00A5010B5064CFFF7CAFF4B
:104BC0006368012B03D1FFF7E9FFFFF7C3FF037809
:104BD000E36010BD00800A50B8B94A680B7812B182
:104BE000127843EAC2034A7843EA42038A6812B160
:104BF000127843EA82138A7843EA8203CA6812B1C0
:104C0000127843EA4223014A9364704700800A50B5
:104C100008B9014B5964704700900A5008B9014B1C
:104C20005964704700A00A5008B9014B19647047D5
:104C300000A00A5010B9024B186C70470020704752
:104C400000800A5048B911B1012903D07047044BC4
:104C5000D86C7047024B186D70470020704700BF3A
:104C600000800A5040B911B1012903D07047034BAD
:104C7000DA647047014B1A65704700BF00800A5024
:104C800010B9024B586D70470020704700800A50E1
:104C900038B50446054D25F016FB0FCC0FC594E83A
:104CA000030085E80300002038BD00BFDC180020A9
:104CB00047F6FF739A42F0B56FD002296FD8394B8F
:104CC0005B5C012B6BD8384DDF0005EBC30415F896
:104CD0003330A178012B13D10025E078401AA84287
:104CE00002D80844C0B2F0BD431B6668A0EB530372
:104CF00036F913609642D4BF1D4603F1FF30EEE74C
:104D000060680028EFD0B0F90040944204DBB0F9AD
:104D100002409442B8BF144683883D44FF2B19BF1C
:104D2000C8224FF0280CB0F90620B0F908C0A2EB59
:104D300004030CBF0126002693FBFCF333446E787A
:104D40001BB29E4201DD002B01DA731E1BB24FF431
:104D50007A7C01339BB2071D5D1E2DB24FEAC50E52
:104D600000EBC505EA88AD689E4214FB025222EAB8
:104D7000E27202F15C02B2FBFCF204DD37F8335060
:104D800001339542E8D200EB0E039888904228BF89
:104D90001046884238BF0846A4E7FF20A3E700205A
:104DA000A1E700BFBABA0308DC1800200229F0B559
:104DB00055D82C4B585C012851D82B4C04EBC00122
:104DC00014F830004B6801280FD1C8788C789042D5
:104DD00094BFC4EB0001C4EB0201001BCAB28242C3
:104DE000C8BF002233F91200F0BD002B37D08878FD
:104DF000904202D3B3F90200F6E7CC78B3F9000091
:104E00009442F1D94C789988013CA1F1FF06714296
:104E100003F10405E4B2714103F10C07CEB2B442D0
:104E200016D805EBC1014FF47A756A43B1F9024017
:104E30004968521A04EBD47102EB610292FBF4F25E
:104E40009042D1DBB3F902009042CDDC10B2CBE747
:104E500037F831C04E1C9445E3D33146DEE70348B2
:104E6000C2E700BFBABA0308DC1800200080FFFFC9
:104E70000148FFF70DBF00BF38C003080048704766
:104E8000CA0C00207FB51422002101A825F0AEFE37
:104E9000044B01A94FF0FF30029325F04BFA07B005
:104EA0005DF804FB006A180008B5B0B14FF48062E9
:104EB0000B4B9A661BF037FD4FF098435A6CD202A9
:104EC000FCD54FF48062586D064B10F470209A6642
:104ED00004D0BDE808401BF04CBD212008BD00BF38
:104EE0000090005000A000502DE9F0418CB08846A1
:104EF000DDE912761D460446002847D0002945D03A
:104F0000002F43D0002E41D013F00F033ED1204894
:104F10002049A360002A08BF0146E361C4E90013E9
:104F2000404609A91BF021FE68BB204609991BF0E9
:104F3000F1FC294620461BF0EDFC6946404600F096
:104F4000DFFA00BB694620461BF0D0FC404603A9AF
:104F50001BF00AFFB8B9204603A91BF0C7FC06974F
:104F60000127204645F0005506A9079708951BF034
:104F7000BDFC204609A909960A970B951BF0C0FCB9
:104F80002046FFF791FF0CB0BDE8F0812120FAE741
:104F900000010004000101042DE9F0418CB08846B5
:104FA00016461D460446129F00284BD0002949D0C2
:104FB000002A47D0002F45D00B68103B102B41D85A
:104FC000214A22FA03F3D9073CD500231F4A836004
:104FD000C0E90023C36109A940461BF0C6FD70BBB0
:104FE000204609991BF096FC294620461BF092FCAE
:104FF0006946404600F084FA08BB694620461BF02B
:1050000075FC404603A91BF0AFFEC0B9204603A9BA
:105010001BF06CFC06960126204606A945F00055BB
:10502000079608951BF062FC094B204609A90997D1
:105030000A960B931BF064FC2046FFF735FF0CB07B
:10504000BDE8F0812120FAE701010100000004041D
:1050500010000020F0B50C4617461E46054695B0D8
:10506000002874D0002972D0002A70D0002B6ED096
:10507000036B0F2B5BD80023364A3846C4E9002364
:10508000A360E36111A91BF070FD00285BD12046ED
:1050900011991BF03FFC296B20460F2984BF01F0BA
:1050A0000F0110311BF036FC384602A900F028FA37
:1050B000002848D1204602A91BF018FC384605A953
:1050C0001BF052FE00283ED1204605A91BF00EFC25
:1050D0000122214B089509920A932B6B05F11000D0
:1050E00003F00F0141F000510B900F2B0C920D912A
:1050F0000E900F9243F00052109226D90A9B08A9F5
:1051000023F0005320460A931BF0F0FB0BA9204626
:105110001BF0ECFB0123119612930F4B204611A9B3
:1051200013931BF0EDFB2046FFF7BEFE0BE000F1F2
:105130002003019000930122102339462046FFF7F7
:10514000D3FE002897D015B0F0BD0EA9DFE72120CF
:10515000F9E700BF00000404100000202DE9F04F23
:105160009BB00C4690461F460546DDF890900028FF
:1051700000F0B280002900F0AF80002A00F0AC807F
:10518000002B00F0A980026B02EB09031B09B3EBB3
:10519000121F02F00F0600F0978000234F4A8B6029
:1051A000C1E90023CB61404617A91BF0DEFC034692
:1051B000002840F0858006EB090B204617992BF05C
:1051C0000F0A1BF0A7FB514620461BF0A3FB4046ED
:1051D00002A900F095F90346002871D1204602A9E2
:1051E0001BF084FB404605A91BF0BEFD03460028CA
:1051F00066D14FF00108019005A920461BF076FB0F
:10520000374A204608A90895CDF824800A921BF059
:105210006DFB46F00051AAEB060605F1100346F0BF
:1052200000560B93CDF830800D910E97CDF83C8051
:1052300010960D99204621F000510D910BA9009375
:105240001BF054FB20460EA91BF050FB019B244A87
:105250001193AAF1100343F00053CDF84880139343
:1052600005F120031493CDF854801692139B204629
:1052700043F080431393139B11A923F0005313931E
:105280001BF03EFB204614A91BF03AFB144A17A959
:1052900020461795CDF8608019921BF031FB20460F
:1052A000FFF702FEAAEB0B0149440190ABEB0A02A7
:1052B0000098394425F0A4FC019B2A6B4A442A63D8
:1052C00018461BB0BDE8F08F10304A4639463044CE
:1052D00025F096FC0023F0E72123F1E70302000408
:1052E000100000202DE9FF474FF000080E4617463A
:1052F0000446CDF80080002859D022B90025284660
:1053000004B0BDE8F087002951D032F0030902F063
:10531000030A1FD04FF0E063C0E900380123019178
:10532000C0F808800293C0F81C8049F0005301A91E
:1053300003931BF0E5FA494620461BF0EBFA2046A2
:10534000FFF7B2FD054628B14A464146304625F0F2
:105350004DFCD4E7BAF1000FD0D04FF000084FF069
:10536000E063C4E900380123CDF804D00293114B67
:10537000204601A9C4F80880C4F81C8003931BF0E0
:10538000BFFA042120461BF0C5FA2046FFF78CFD2A
:10539000054608B13A46D8E7009A4E44EB0001357D
:1053A00022FA03F3AA4506F8013BF7D1A6E7212527
:1053B000A5E700BF04000020F0B50F4616461D46C5
:1053C000044693B010B9212013B0F0BD0029FAD0E3
:1053D000002AF8D0002BF6D0002331461A46384672
:1053E0001BF068FB0028EFD1304602A91BF0FEFA43
:1053F0000028E9D1EB68022B0AD039683F48029AAD
:1054000081426B6902D01830814270D19A42DAD859
:105410002B68002BD7D14FF060623846C4E90023D7
:10542000A360E36101A91BF0A0FB0028CCD1019986
:10543000204621F4F06101911BF06CFA6946284680
:105440001BF093FB0028BFD1204600991BF062FAA5
:10545000384609A900F054F80028B5D1204609A91A
:105460001BF044FA38460CA91BF07EFC0028ABD197
:1054700020460CA91BF03AFAEB684BB1284606A966
:1054800000F03EF800289FD1204606A91BF02EFA16
:10549000304603A91BF068FC002895D1B368DA04F4
:1054A0000CD59B0427D50621F36932691B6801FBE3
:1054B00003225B0043F0005303920593204603A9A7
:1054C0001BF014FA28460FA91BF04EFC00287FF4AD
:1054D0007BAF20460FA91BF013FA03252046FFF7E8
:1054E000E3FC01287FF470AF013DF7D16CE7B3EB2B
:1054F000420F8DD267E7292066E700BF200000B089
:1055000090B189B101234B60C368013B012B08D8DE
:105510008269064B1AB10A6000208B607047044A0A
:10552000F9E74FF00053F7E721207047080000200B
:10553000C0BA030870B50E46154604468AB0002866
:105540005BD0002959D0002A57D0012329461A469A
:1055500030461BF0AFFA00284DD1B36813F4C04FAA
:105560004BD0AB6803F4C043B3F5005F45D1254B86
:10557000A060C4E90030E06107A930461BF0F5FAED
:10558000002838D1204607991BF0C4F9304601A9FC
:10559000FFF7B6FF78BB20461BF0A8F9304604A9F8
:1055A0001BF0E2FB38BB204604A91BF09FF9EB6817
:1055B0001BBBAB6803F4C043B3F5005F1DD1694664
:1055C00028461BF03EFAB0B9009B6A699A4216D38E
:1055D0002A6943F0005307920122204607A9089246
:1055E000032509931BF08CF92046FFF75DFC012889
:1055F00001D1013DF8D10AB070BD2120FBE71D208B
:10560000F9E700BF0000010206289ABF014B185CB1
:1056100000207047C8BA030830B5154B87B0029315
:10562000144B0390049346F611030D46059300F0C6
:1056300077F91428044616D168461BF053FD4FF045
:10564000A843032202A95A6319601D619A63DA6BA9
:105650009207FCD1142C02D168461BF051FD00F0DA
:1056600093F9044601E00028E9D0204607B030BD98
:10567000F4180020040000202DE9F04FB1B00546D9
:105680008C469E46E8466F4EDDF8EC90409C06F155
:10569000100A474630687168083603C75645B84651
:1056A000F7D13E9B03EB0208C8F1000A0AF00F0A8B
:1056B000B9F1000F00F09D80C9F1000707F00F0756
:1056C0000121DDF8FCB044F00050C4F11006CDF823
:1056D00010B005910690300200F4F85040F021001F
:1056E0000790B9F1000F40F08680CDF820D047F048
:1056F0000050002D00F08480099121210A9041EA98
:1057000007210B9142F00050CDF830C03D9B08A915
:105710004FEA0A2C0D910E904CF041000F9010931F
:10572000002A75D13E9B119143F0005312933C9B8C
:105730001390149310AB1593434B444A169340F6C1
:1057400011031793424B0021002D08BF13461893F5
:1057500014AB19933F4B10221A9311231B931CABCC
:10576000184625F043FA01221D92002246F0804699
:1057700003461E96239205B9EB46102CCDF880B057
:1057800024AE4BD10123224600213046219322949E
:1057900025F02CFA20AB002125938F4218BF334609
:1057A00047F0804226923A9A2CA828922993B2FA7E
:1057B00082F35B0949EA837310222B912A9325F027
:1057C00015FAB9F1000F00D028AED04448F080435C
:1057D0002CA918A82D962E93FFF71EFF30B92DB9CE
:1057E0000346A34225D1002818BF2C2031B0BDE8C4
:1057F000F08F102764E7CDF820E049F0005078E7FB
:10580000002C3FF479AF04A9099101210A9076E7B1
:105810003E9B0CAA11924120129388E7102200218E
:1058200030462193229425F0E1F9002CB2D10123D6
:10583000B1E703F1C0026A4412F8C02C01331043EF
:10584000CFE700BFCFBA030810000020E4BA030876
:10585000E8BA030804000020F0B5C0299FB0DDE9D4
:10586000244557D0B1F5807F04D0802948D0292025
:105870001FB0F0BD01265CB140F234470294102401
:1058800003960494212401970594069502AC0AE03E
:1058900040F21447029410240396049421240594A2
:1058A0000124019706950794012510240894099571
:1058B0000A9221220B950C940D92174A0AAD0E9272
:1058C000164A0F95109242F61102119212931395F7
:1058D0001494159201AA1692D3B112AB1793042314
:1058E00018931123199316AB1A901B9340F61103CA
:1058F000C9081C911AA806A91D93FFF78DFEB7E7EA
:10590000012614B94FF48267C4E74FF48667B5E700
:105910000EABE3E70F20ABE7E0BA0308100000107E
:1059200038B5164B5A6E42F004025A66D3F88022FC
:1059300042F00102C3F88022114B5B68C3F30803F5
:1059400043B14FF0A842D36B13F0430FFBD11424A3
:10595000204638BD4FF0A843DC6B14F04304FBD164
:10596000084D2B681BB90421284602F081FC2B68E6
:10597000013343F000432B60EAE700BF0080005092
:1059800000ED00E0F4180020014B00205B68704738
:1059900000ED00E0012300F01F02A0F506200949F8
:1059A000A0F550604009934051F820201A4341F877
:1059B0002020054951F8202022EA030241F8202046
:1059C000704700BF0C190020F81800200121A0F535
:1059D00006230E4AA3F550635B0900F01F008140C7
:1059E00052F82300014342F823100949D1E900305D
:1059F000034488680344C868096903445B1802BF0C
:105A0000C2E90033C2E9023313617047F81800207D
:105A10000C1900202DE9F04FA9B003921D46044651
:105A20000822339ECDE90401414021FA02F34B40A4
:105A3000980702F1080218BF9B00202A1C44F4D1E9
:105A40008123B4FBF3F303EBC313E41A734B04F5A4
:105A500006241B7804F55064002B3ED1FDF706FAAE
:105A6000074620B16FF0910029B0BDE8F08F0146E4
:105A7000402208A825F0BAF84022394618A825F097
:105A8000B5F8DFF8B481DFF8B491C3460BF10F0A23
:105A9000CDF800A0102208A95B46D9F8000024F038
:105AA000CEF90022014608F1100808AF914246D114
:105AB000CDF800A05B461022D9F8000018A924F008
:105AC000C7F94FF0000A834618AFD34541D1544B74
:105AD0009845DAD10122514B1A704FF0810A4FF0EC
:105AE0000008DFF85CB1A4F50627A7F550635B0951
:105AF0005BF8232004F01F01CA40D2073DD4494A75
:105B000052F82330CB40DB072AD5B8F1000F08BF8D
:105B1000A0468123A7F6FF47B7FBF3F303EBC313BC
:105B2000FF1A07F50624BAF1010A04F55064DAD128
:105B3000039BBBB1B8F1000F14D0444619E057F8ED
:105B4000040BCDE90612FFF725FF079A06990132EB
:105B5000ACE757F8040BFFF739FF0AF1010AB4E785
:105B6000039B13B96FF08B007EE7B8F1000F18BFED
:105B70004446349B00201C6076E7329B13B100231F
:105B8000329A13600EB1002333601023DFF8AC901B
:105B900000932A4600232146D9F8000012F0D0FADB
:105BA00060BB32992A68204BC9B99A4206D0214677
:105BB000D9F8000012F05CFB0028D3D1D5E902230C
:105BC000DDE90410834208BF8A42A2D1039B002B67
:105BD000CFD06B68012BCCD16FF0840044E710204C
:105BE00032999A420860E2D1002EE7D0334621462E
:105BF000D9F8000018AA12F0F7FA48B10B4B9842F6
:105C0000D5D00B4B9842D2D00A4B9842D6D029E738
:105C1000329A336812689B1A3360CFE71927002045
:105C200000710800F8180020105D175EFFDF00F01B
:105C300011E000F0FEDF00F0006D0800F80A00201F
:105C40000C1900202DE9F04F87B08246894698460E
:105C50001646DDF840B02AB1002B4FD040F26C73ED
:105C60009A424ED8BBF1010F4ED8002406F110071E
:105C70003946012005941BF0C9FF0546002846D08F
:105C800021463A4624F0B2FF05ABCDE9014300942A
:105C90002B46012250464946FFF7BCFE044680B120
:105CA00010F18C0F08BF6FF08D043A460021284692
:105CB00024F09CFF28461BF0B9FF204607B0BDE842
:105CC000F08F144BC5E902A92B60C5F804B02EB1C2
:105CD0003246414605F1100024F092FF059E0E4821
:105CE0003B462A463146006812F092F918B9304610
:105CF000FFF750FED9E76FF09104D6E76FF0860406
:105D0000DBE76FF09104D8E76FF08504D5E76FF01B
:105D10008C04D2E7105D175EF80A00202DE9F043ED
:105D20008DB08146DDE914780E4615461C469BB1C0
:105D3000B8F1000F05D16FF0860630460DB0BDE812
:105D4000F083002FF7D0B7F1005FF4D3C3F1005315
:105D500003F580239F42EED81022002108A824F0EA
:105D600045FF002207AB029305AB019306AB31461A
:105D70000093484608ABCDE90522FFF74BFE0646E7
:105D80000028DAD1059BA4B1AB4215D853EA05042B
:105D9000D1D1069B0B48C8F8004000943A460799B9
:105DA00000682B4412F0CCF9002818BF6FF0910660
:105DB000C3E7AB42EDD2BEE75B1B9C4228BF1C464B
:105DC000E7E700BFF80A002030B58DB00C46054665
:105DD0001022002108A824F009FF002207AB02933B
:105DE00005AB019306AB21460093284608ABCDE9ED
:105DF0000522FFF70FFE0446D8B9099B012B1BD0E3
:105E0000079D104B2946186812F032FAB8B90122E2
:105E1000A5F506230C49A3F550635B0905F01F00A7
:105E2000824051F823004240284641F82320FFF7E2
:105E3000CDFD20460DB030BD6FF08404F9E76FF062
:105E40009104F6E7F80A00200C1900202DE9F04F24
:105E500093B00446DDE91E75DDE920689346DDE96F
:105E60001C028A46DDF8889029B96FF08604204626
:105E700013B0BDE8F08FBBF1000FF6D00FB9002DC5
:105E8000F3D108B9002AF0D116B9B8F1000FECD15E
:105E9000B9F1000FE9D02C4A934251D12388B3F5D0
:105EA000105F4DD12022002102A824F09FFE202265
:105EB00000210AA824F09AFE02A81AF088FD10B169
:105EC0006FF09204D3E720465A4651460AAB00F0E1
:105ED0000FFA04460028CAD10A981BF07EF904463E
:105EE0000028C4D115B9C9F80050C0E7B74224D280
:105EF0007B199E4221D24545B7D839462A463046BD
:105F000024F05AFE374615F00F0AAED1CDE90076DF
:105F10002B4652460AA902A8FEF7E6FF07460028CC
:105F2000E1D042465146304624F060FE012FC9F8C8
:105F300000A0C5D16FF08B0499E74545E3D994E7FC
:105F40006FF0850493E700BF004440042DE9F0475B
:105F5000C2B00C4607460021154601A820229A46E9
:105F60004A9EDDF83091DDF8388124F03FFE202292
:105F7000002109A824F03AFE2022002111A824F0D3
:105F800035FE2022002119A824F030FE00218022B5
:105F900022A8219124F02AFE3CB135B12EB1B9F1ED
:105FA000000F02D0B8F1000F05D16FF08604204633
:105FB00042B0BDE8F0872188628801F4E043B3F580
:105FC000804FF2D02C4B2D483B4043F0106383426E
:105FD00002D06FF08504EAE7D31DBAEBD30F4FEA86
:105FE000D307E2D34D9B9F423FD847F21213994209
:105FF000EFD1B2F5807FECD1214B4B9809938423EC
:106000000230013620F0030016937B000D960E90AF
:10601000129320465246294621AE01AB159600F058
:1060200067F904460028C2D10B9B119043F400533A
:1060300019A80B931AF0CBFCD0B911AB09AA01A98E
:1060400019A8FFF7B9F9054610B14828ADD1C0E746
:106050003A463146484624F0D3FD2B467355013568
:10606000842DFBD1C8F80070A1E76FF089049EE78A
:106070006FF092049BE700BF0000FFF600000209EA
:10608000200000802DE9F0410D4614461E46C2B0A6
:1060900010B96FF086000DE00029FAD0002AF8D080
:1060A000002BF6D0038803F44F42B2F5824F04D0A0
:1060B0006FF0850042B0BDE8F081DAB2122AF7D164
:1060C00023F0FF03B3F5E24F27D143883360FBB9D8
:1060D000E3003360B3F5807FEAD1002318464349DB
:1060E0002E19214411F8014D16F8012D1043121BF1
:1060F0000CBF4FF0FF340024B54203EA040343EA27
:106100000203EFD10028C4D0002BC2DA0020D1E76F
:10611000DA1DB4EBD20FDDD0BBE7B3F5824F61D10E
:106120000B78042BB5D120220021684624F05EFDB7
:1061300068461AF04CFC002851D1002784223946C9
:106140000DEB0200209724F051FD202201234FF097
:10615000880839460DEB0200013C8DF8803001358E
:1061600024F044FD202239460D9410A8E4000C953B
:10617000640824F03BFD20AD2022394618A8149570
:10618000CDF8548024F032FDE02CCDE91C58346069
:1061900003D0B4F5807F7FF47CAF154B07340893B0
:1061A00010934FF400530A934FF48043E408129382
:1061B00008AA18AB6846640010A91994FFF7FCF808
:1061C00033680733DB085A0033B10021531E013B0B
:1061D000297005F10105FAD2002897D059E76FF030
:1061E000920067E76FF0960064E700BFECBA03081F
:1061F00020000080F8B5134642880C460732072A73
:106200004FEAD20101D0A1426DD146680588C76826
:1062100020221846002124F0E9FC360A034626B164
:10622000012E11D06FF08B00F8BD002C5BD041F235
:106230000102954205D0B5F5885F02D0B5F5905FB3
:106240001BD15C600020EFE7C660002C4BD041F210
:10625000010295420BD15C60B90707F001021FD41F
:10626000002AEFD19A6842F080729A60EAE7B5F5A9
:10627000885FF0D0B5F5905FEDD0B5F5105F0AD12D
:10628000182C03D0202C01D0102C2CD1C3E90044B1
:10629000002ED7D0E0E705F44F42B2F5824F02D08E
:1062A0006FF08500C0E7EAB2122AF9D1202CF7D1AD
:1062B0000E4A25F0FF05B5F5E24F1A600CD0B5F592
:1062C000824F10D14FF4005217F4705F09D017F4C9
:1062D000864F04D09A60E3E74FF48042F4E742F43B
:1062E00080629A60D4E76FF086009DE7200000800E
:1062F0002DE9F041174600221C4643688CB01B0A6A
:1063000080460D46009204D0012B56D06FF08B00D2
:106310008EE0008820F0FF03B3F5824F15D1B8F866
:1063200002200732D20800921AF063FF002800F022
:10633000E1800B78042B05D1013FB7EB420F05F14B
:10634000010503D06FF0860072E00097009E2246A0
:1063500031464046FFF74EFF002869D1FA1CC4E9D8
:10636000030522F003026261002E00F0A4802022C7
:10637000002101A824F03AFC3146404601AAFFF76B
:1063800039FF002840F097802368019A9A4240F034
:1063900092806368029A9A4240F08D80A368039AC3
:1063A0009A4240F08880A369079A9A4240F083801D
:1063B000E369089A9A423BD07DE0032FC2D90B785B
:1063C000012B40F09A80497800294BD0F7390829F1
:1063D0009CD801A353F821F041640108FD63010832
:1063E0000D630108376401080D6301085B6401084F
:1063F0000D6301084B640108536401084FF4105603
:10640000F8253F4F1C22002102A824F0EFFB0323B4
:106410000197CDE90435039601AA09AD134603CBD4
:10642000AB42206061601A4604F10804F6D10020F6
:106430000CB0BDE8F08110274FF08076FA25E1E737
:1064400020274FF00076F725DCE7FE252C4F2D4E58
:10645000D8E7FF252A4F2C4ED4E74FF41056FC25E1
:10646000274FCFE72B2F7FF66DAF2022204624F059
:10647000BDFB05F110032361AB070DD001AB05F1A6
:1064800028061A4628686968083503C2B5421346CB
:10649000F7D1286801AD10606B68103F2360AB68CE
:1064A00069466360EB682046A36001236761E3608F
:1064B0001AF09CFA28B120220021204624F096FBF5
:1064C00040E7B8F80030009E03F44F42B2F5824F27
:1064D0000ED1DAB2122A0BD123F0FF03B3F5824FAB
:1064E00006D1730062691C339A42BFF43DAFE2E704
:1064F0003346F7E76FF085009AE76FF0910097E772
:106500002000008000440002004400032DE9F04F09
:106510008FB0DDF8608081460C4692469B461A9FFC
:10652000B8F1000F05D16FF0860420460FB0BDE82A
:10653000F08F002FF7D00028F5D02022002106A8E8
:1065400024F054FB06A81AF042FA10B16FF092043E
:10655000EBE714F47C1FC4F305452AD0102DE2D8D4
:10656000199B9D4233D81D4B24F47E149C4231D19B
:10657000002302AECDE90233CDE9043352465B4637
:106580004946009606A8FEF707FD044698B92A4634
:106590003146404624F034FB234633550134102C59
:1065A000FBD100243D6006A81AF01BFA0028BCD0DD
:1065B000CCE71025D4E7212806D0012814BF6FF0BE
:1065C00092046FF08B04EEE76FF08604EBE76FF058
:1065D0008904AAE76FF08504A7E700BF0002C003A3
:1065E00070B50E461446054610B96FF0860070BDB2
:1065F0000029FAD03822002124F0F8FA094B24F4BB
:106600007E129A420AD13388B3F5105F06D1C4F3E3
:106610000543102BE9D800202C60E8E76FF08500D7
:10662000E5E700BF0002C003F0B50F4616461D4661
:1066300004468BB088B302B97BBB2022002102A89C
:1066400024F0D4FA02A81AF0C2F920B16FF0920433
:1066500020460BB0F0BD2368114A23F47E13934209
:1066600015D135B9002402A81AF0BBF90028EFD0E3
:10667000ECE733463A46009502A9201DFEF76EFD71
:10668000012807D00028EDD06FF09204EBE76FF0FF
:106690008804E8E76FF08B04E5E76FF08604D7E73E
:1066A0000002C0032DE9F0418CB0884616461D4615
:1066B0000446129F002840D0002A3ED0002B3CD038
:1066C000002F3AD0102B036828BF102513F47C1F2D
:1066D000C3F3054202D0954228BF15461A4A23F457
:1066E0007E1393422CD12022002104A824F07EFAAC
:1066F000002304A8CDE90033CDE902331AF067F98D
:1067000040B96B46424604A9201DFEF7A3FC30B1F8
:1067100000233B606FF092000CB0BDE8F08104A84C
:106720001AF05FF904460028F2D12A46694630463D
:1067300024F066FA20463D60EEE76FF08600EBE756
:106740006FF08800E8E700BF0002C0032DE9F041C8
:106750000E4617469846044600B3F9B1F2B19822A6
:10676000002124F043FA3146069A04F16000FFF755
:1067700037FF0546A0B92346424639463046FFF763
:10678000B7FD054660B97288D208A2F11001102940
:10679000E26503D80A4BCB40DB0704D46FF08605D3
:1067A0002846BDE8F08163691C329342F6D304F1B8
:1067B00020031846216924F023FA2061F0E700BF86
:1067C000010101000023C36001F1380303612023AC
:1067D0000A6843618B6D0B4922F47E128A42436042
:1067E00003D001F580718A4208D1102B01D0182BFB
:1067F00002D1036000207047202BFAD06FF0880090
:10680000704700BF0001C00307B5094B18689A889C
:106810009B7900906846ADF804208DF80630FDF7AE
:10682000B9FD0320FDF7EEFD002003B05DF804FB89
:106830000CBB030813B50024064A6846536F43F0A7
:106840000103536700948DF80440FDF7E1FC2046F6
:1068500002B010BD0040005030B58BB06C46184DF2
:106860000FCD0FC40FCD0FC495E8030084E80300DB
:10687000144BD3F84C2112031DD5A3F5FE431C88FD
:106880004FF6FF739C4208BF8C248DF81940FDF72A
:1068900011F9204480F308008DF818000A48FCF72D
:1068A0003FFA6846FDF70AF84FF4FA70FDF738F939
:1068B00000200BB030BDD3F85041E4B2E5E700BF93
:1068C00014BB03080080E00FC01753026FF00403ED
:1068D000502110B50A480B4C13F0800F03F1010250
:1068E00007D123444C2A83F800131346F4D1002027
:1068F00010BD03F00F03043B034419761346EBE786
:1069000000ED00E000E100E038B500F081FF044652
:10691000F0B901F0CBF901F049F84FF41673434395
:106920000C4A03F5742303F23F23B3FBF2F30A216D
:10693000094A0A4813600A4D0268013911F0FF0143
:1069400045F8043BF9D11A4403EBC3031344036035
:10695000204638BD40420F00541900202419002061
:1069600028190020012208B5034B1A701BF0B6F855
:10697000024B186008BD00BF1A2700202019002014
:1069800010B501F013F8044619F0D5FE844207D97A
:106990001BF0B2F820B10122024B1860024B1A70B2
:1069A00010BD00BF201900201A270020F8B51C4C8C
:1069B0002378D3B11BF092F81A4B1B4D1B68C01AF9
:1069C000012838BF0120286000F0F0FF4FF4167353
:1069D0005843164B00F5742000F23F20B0FBF3F053
:1069E0002968814202D900232370F8BD104D114E51
:1069F0002B78114F56F8232046F82310501A0A21FD
:106A00003A680133121A3A600932B2FBF1F20B48CC
:106A1000DBB20260B3FBF1F201FB12332B70E2E751
:106A20001A270020201900205019002040420F0092
:106A30001B270020281900202419002054190020A9
:106A4000014B1868704700BF5419002020234FF4F1
:106A50008012042110B50F4C0F4884F82C330F4BD3
:106A60005A660F4B03F50052506751671067116764
:106A70004FF48052C4F8842162609A1850675167BD
:106A80009A6A22F000729A629A6A42F480529A627A
:106A900010BD00BF00E100E0010000A00090005028
:106AA0000040005A044B9A6D12F0050F02D10028E5
:106AB000F9D17047012070470040005A154B10B5BE
:106AC0001C6F14F004020FD003F500531A6708225C
:106AD0009A62FFF755FF00F0DDFB00F0BDFB0120DF
:106AE00001F092F81BF00AF8E30706D501220A4BE1
:106AF0001A67FFF75BFF00F0AFFB14F000521CBFFA
:106B0000054B1A67002CBEBF4FF00042024B1A67BC
:106B100010BD00BF0040005A0060005ABFF35F8FF5
:106B2000074B5A6A22F480325A62D3F8942022F03A
:106B30000102C3F89420BFF34F8FBFF36F8F7047EC
:106B400000ED00E070B52948294CFFF7E7FF8442CB
:106B5000284D294919D1D5F8C03023F0FF0343F05F
:106B6000A003C5F8C0304FF080430A68214D234E82
:106B7000C5F8982043F0010301328442C5F89C60B7
:106B8000C5F8A0300A601ED00DE0D5F8C02020F076
:106B90001F03203B22F0FF0242F0A002B3F1005F8E
:106BA000C5F8C020E1D2164B0A68124823F01F0333
:106BB00043F00303C0F89820C0F89C30114B013219
:106BC000C0F8A0300A60BFF35F8F0522094BC3F8FD
:106BD00094205A6A42F480325A62BFF34F8FBFF357
:106BE0006F8FBFF34F8FBFF36F8F70BDF80C002016
:106BF000A40E002000ED00E0581900200300002042
:106C0000C30E0020E1FFFF3FF8B51446FFF786FFF3
:106C10001F2C27D90027C2062A4D1CBF20F01F00B9
:106C200020302A68CB06284B18BF21F01F01FCB288
:106C3000A2422BD8D3F8C04020F01F0024F47F4498
:106C400044F4807421F01F01C3F8C04040F00300F9
:106C5000C3F8982041F003010132C3F89C00C3F847
:106C6000A0102A600020BFF35F8F0522164BC3F8E7
:106C700094205A6A42F480325A62BFF34F8FBFF3B6
:106C80006F8FBFF34F8FBFF36F8FF8BDC3F898407E
:106C9000D3F89C40D3F8A06024F01F04A04226F053
:106CA0001F0601D1B142DDD0B04201D8A14207D2C6
:106CB000D3F89840013724F0FF04C3F89840B6E7B2
:106CC0002820D0E75819002000ED00E0BFF34F8FD7
:106CD0000549064BCA6802F4E0621343CB60BFF378
:106CE0004F8F00BFFDE700BF00ED00E00400FA0594
:106CF000054B1A782AB95B78002B0CBF03200220C1
:106D000070470120704700BF262700200329F8B5EF
:106D100098BF124B05460E468CBF00245C5C0328CE
:106D200005D8DFE800F002080B0E44F002040C4B1B
:106D30001F684FB9F8BD44F00804F8E744F0200498
:106D4000F5E744F08004F2E77B681A68144203D048
:106D5000314628465B6898473F68EAE73CBB030832
:106D60008819002038B5104D2B78ABB10F4C237823
:106D70001BB100F0C5FB00232370002000F0E8FBEE
:106D80000B4C50B100F0EEFB0023012120782B705A
:106D9000FFF7BCFF0123237038BD0122054B1A7099
:106DA0002278054B1A70F7E7212700201F270020C3
:106DB00028270020222700202327002010B519F0C3
:106DC00031FD064B04461B781BB1BDE8104019F09D
:106DD0002DBDFFF7C7FF2046F7E700BF1E270020A5
:106DE000094A137830B101331370084B1B78012B1B
:106DF00003D87047013B13707047054B1B780BB9E4
:106E0000FFF7B0BF704700BF2627002028270020CB
:106E10002227002070B519F005FD134E0546337882
:106E2000ABB900F0F5FC044620B1284619F0FEFC91
:106E3000204670BD00F020FF0C4819F07FFC00F0E8
:106E4000EBFF0B4B1C6000F0B1FD0A4B186000F02B
:106E500055FA1AF0BAFD084B0024186001232846A1
:106E6000337019F0E3FCE3E729270020881900209C
:106E70005C19002084190020601900202DE9F843D6
:106E8000284A0138135C39B1274F0133397813543C
:106E9000012904D8BDE8F883013B1354FAE7FFF752
:106EA00027FF0128044635D819F0BCFCDFF88480A0
:106EB000054698F8003013B31C4E33781BB90122F5
:106EC00032701B4A1370DFF8709099F8003023B1CC
:106ED00000F016FB002389F80030284619F0A6FCC4
:106EE000012000F035FB19F09DFC337805461BB1FD
:106EF00000F038FB00233370002388F80030284668
:106F000019F094FC3878A042C4D02146FFF7FEFE69
:106F10003C70BFE70329F5D10228F3D11AF059FDDF
:106F2000F0E700BF26270020282700201E2700208A
:106F300022270020212700201F27002010B504460B
:106F400019F070FC002C0CBFFF210121064A1378B8
:106F50000B44DBB21370B3FA83F3BDE81040034A6D
:106F60005B09137019F062BC25270020242700203C
:106F700038B519F057FC094B05461B78012B04D88E
:106F800019F054FC0024204638BD054B1C6800F065
:106F900043FB0444284619F049FCF4E72827002065
:106FA0005C19002038B54160044619F03BFC0546E9
:106FB0002146044819F0C5FB2846BDE8384019F0C1
:106FC00035BC00BF88190020054B1B685843054B92
:106FD00000F5742000F23F20B0FBF3F0704700BFD3
:106FE0008419002040420F002DE9F04F85B0EFF3E7
:106FF000108772B6AFF3008019F050FB00286FD0F5
:10700000804EDFF82C82337823B10020FFF7E8FEB2
:1070100000233370FFF76CFE0446002867D0841EFF
:10702000E4B2012C6AD9FFF763FE01280546764CCD
:10703000DFF8009200F28C802078854240F0C68014
:10704000207800F0D3FA99F8003013B16F4B1B7819
:107050002370AFF3008007B962B6EFF3108772B602
:107060006B4B1A7852B100221A70684B20781B784B
:10707000984203D101212170FFF748FE654800F0D6
:1070800001FC19F01AFB05460028BCD1624BDFF861
:107090009481187098F80030ABB189F80000DFF8DF
:1070A0008C9199F800301BB100F02AFA89F8005051
:1070B000002000F04DFA002800F09B8000F052FA0A
:1070C000002388F80030337823B10020FFF788FED2
:1070D0000023337000212078FFF718FE002323706F
:1070E000AFF3008007B962B605B0BDE8F08F337822
:1070F000002B98D0FFF774FE347094E7002003A9AA
:1071000000F010FC044600288DD1D8F80030039A16
:107110009A4205D80120FFF763FE0123337082E70E
:107120003E4B1D6800F078FA039B05449D42F1D266
:1071300000F088FA8200039942F0020292B2CDE98F
:1071400000422346364A491B32481AF043FC6AE79C
:10715000344BDFF8C4A093F800B0BBF1000F25D189
:1071600000F056F92078854230D19AF800307BB98A
:107170002C4D2B78002B7FF463AF2B4B1B7823B95E
:1071800000F0B8F90122294B1A7001232B7057E740
:10719000022DEDD18AF800B015E02378022B25D11D
:1071A00000238AF8003023F0C8F91FE020788542D8
:1071B0000CD19AF80030002B3FF442AF022DD7D10A
:1071C00000238AF8003023F0B8F9D1E70023DFF874
:1071D00048A08AF8003099F8003013B92946FFF723
:1071E00095FD9AF800302570002BD6D1012DBFD81F
:1071F00026E7012000F0FAF907B962B6EFF310872D
:1072000072B655E7202700202827002023270020DA
:107210001C27002064190020242700205C1900206E
:10722000BD6D010821270020252700201F270020F1
:10723000601900202227002010B519F0F3FA00226F
:10724000044B1C781A7019F0F1FA00F0D1FC2043BD
:10725000C0B210BD1D27002010B5094B1B786BB1C3
:10726000084C237853B100F07DF90023064A2370BF
:1072700013700123054A1370054A137010BD00BF37
:107280002827002022270020212700201D2700205A
:107290001C270020034B1B7813B10122024B1A70EC
:1072A000704700BF282700202227002073B5114E09
:1072B0000446337883420FD04FF400730E4DADF87F
:1072C000043058B101A8FCF76BFF4020FFF77CFEAB
:1072D0002B68181A2860347002B070BD8DF8050054
:1072E00001A8FCF75DFF4020FFF76EFE2B681844F5
:1072F000F0E700BFDC0C00208C19002073B50024DF
:1073000001A88DF80440FCF7E5FF2046FFF7CEFF0B
:10731000364A3749136F374803F007030B60D2F83A
:107320000011354C01F0030101604FF48010334926
:10733000032B48664FF40030486601F5983189699F
:1073400001F00200C1F34001217046D0D2F8203193
:1073500003F00703991E4B424B41D2F82811284DE8
:1073600001F00701022908BF43F0010325490B7012
:1073700058B33BB9D2F8003103F003035A1E53420D
:1073800053410B70194BD3F8003103F00303022B68
:1073900025D0032B26D0012B17D1FBF7BBFC0246CF
:1073A00098B1194B194EDC6800231946C4F30B043D
:1073B000013404EB84040138E4FB060118F004F9FD
:1073C000FFF702FE2B6803442B601F20FFF7FCFD34
:1073D0002B6803442B6002B070BD0123BDE7FBF7AF
:1073E000F5FCDCE719F0A2F9D9E700BF00800050F6
:1073F00090190020941900202C27002000900050A4
:107400008C1900202D27002000C0015040420F00A1
:10741000074A0849D2F8203103F007030B60D2F87D
:107420002831054A03F00703136019F00DBA00BFB5
:10743000008000509C19002098190020144B1A78E5
:1074400022B300221A70134B1A6F22F0070242F087
:1074500001021A67D3F8202122F0070242F003024A
:10746000C3F82021D3F8282122F0070242F00302BA
:10747000C3F82821084B1B7833B10122074B5A600F
:10748000074A53689B07FCD4FBF72EBC704700BF2C
:107490002B270020008000502C27002000E0015006
:1074A00000C0015008B50F4B1B78A3B102201AF0A1
:1074B00034FB80B100F066FA68B10B4B9A6DD103D2
:1074C00002D5DA6D920702D49B6DDB0704D54FF429
:1074D0008032064B9A6208BD0122054B1A70FFF7F5
:1074E00041FAF4E72D2700200040005A0050005ACE
:1074F0002A2700200122014B1A7070472B270020F9
:107500000F4B10B51B7883B10E4C2378A3B90E4BEB
:107510009A6DD10302D5DA6D920702D49B6DDB0719
:1075200004D54FF48032094B9A6210BDFFF71AFA66
:107530004FF48032054B9A6200232370F5E700BFB9
:107540002D2700202A2700200040005A0050005A12
:10755000034B1B780BB1FFF7A5BA0120704700BFA2
:107560002D27002008B519F070F9174B1B7833B19F
:107570000122164B5A60164A9369DB07FCD5154B5E
:1075800015491A6F096822F007020A431A6713495E
:10759000D3F82021096822F007020A43C3F820210A
:1075A0000F49D3F82821096822F007020A43C3F8DB
:1075B00028210C4B1B781BB14FF480320A4B9A6286
:1075C000BDE80840FBF790BB2C27002000D00150FD
:1075D00000C0015000800050901900209C1900202C
:1075E000981900202D2700200060005A02280AD098
:1075F00003280BD001280CD1064A136923F0040399
:10760000136130BF70470020FCF7D6BD0020FCF7A7
:10761000EBBD704700ED00E008B5054B187818B1D8
:10762000FFF70EFA00EBD000024B1B68184408BDB0
:107630002D2700208C1900200122014B1A70704761
:107640002D270020014B1878704700BF2D27002000
:1076500038B500F043FB0025084B094C1A68236835
:10766000C31A2AB123B15169994203D3C91A51618E
:10767000206038BD55615B1A9268F2E7A8190020B6
:10768000A4190020C38870B504460D463BB9FFF726
:107690006FFC8542064602D21AF08CF935460E4937
:1076A00065610B688BB90C60A3600DE0AD1A9A6838
:1076B000184665616AB113465A69AA42F6D930B1D3
:1076C0008460521BA3605A6170BD0020F4E70C6017
:1076D000F7E79C60A260F7E7A819002038B5134DC2
:1076E0002B685B6993B1124A022014681C441AF09B
:1076F0000BFA204600F026FB00230E492A680B7087
:10770000D088800709D501230B7038BD02201AF0FC
:10771000FBF9022000F064FBEEE79268002AF4D047
:1077200050690344012BEBD9EFE700BFA8190020F3
:10773000A41900202F270020F8B515469DF81C201D
:10774000BDF820700271069A0446026000220E46BF
:10775000C0E903358260C780ADB900F0BFFA30449C
:10776000A0615EB13546062F1FD1194A2846936A9B
:1077700043F00803936200F0B9FA02E0E36866613F
:107780007BB90020F8BD00F0A9FA2844A061002EC2
:10779000E8D1E3686661002BE5D020462168984770
:1077A000E1E7204621689847EBE719F03BF80646E9
:1077B000FFF74EFF29462046FFF764FF054B1B6885
:1077C000A34201D1FFF78AFF304619F02FF8D8E71E
:1077D0000040005AA819002000220C490B687BB118
:1077E00083420AD183687AB1936083681BB15A6976
:1077F00041690A445A61002070471A469B68EEE7C7
:107800000028EFD0022070470B60EEE7A819002097
:1078100070B519F00EF8144E05463478FCB9134BC8
:107820001C60134B1C60134B1C8000F0F3F901200B
:107830001AF06AF91AF09CF90F4B0246186020B949
:10784000284618F0FCFF232070BD234640F2E731A4
:107850000A4817F0B9FE0A4B186001233370284616
:1078600018F0EDFF0020EFE730270020A8190020D6
:10787000A4190020BE260020AC19002018FCFFFF30
:10788000A0190020C38870B5062B044601D100F072
:10789000AFFA18F0C7FF134E0546FFF7D9FE33685D
:1078A0002046A34208D0FFF797FF0446B0B1284610
:1078B00018F0BCFF204670BDFFF78EFF044600287D
:1078C000F5D133683BB9022000F074FA284618F06D
:1078D000ADFF0024EEE7FFF701FFF7E73368002B69
:1078E000F4D1F0E7A819002038B50C460546A8B138
:1078F000A1B100230B7018F09CFF0121084B1B68FD
:1079000033B918F09CFF002038BD9D4204D121708E
:107910002278002AF9D0F4E79B68F1E72220F3E708
:10792000A8190020F8B506460F4618F082FF00257A
:107930000446124B1B6823B9204618F080FF1B2019
:1079400011E05A691544DA88B2420DD100F0C6F947
:107950000B4E3368C01AA8420AD3002320463B606E
:1079600018F06DFF0020F8BDFF2EEFD09B68E2E716
:1079700000F0B4F933682B441B1AEFE7A819002074
:10798000A419002008B5074B187848B11AF0A6F8DA
:10799000054B1B689B69C01A02288CBF0020012080
:1079A00008BD00BF2F270020A8190020014B186830
:1079B000704700BFAC190020F8B50C4B05461B689A
:1079C0000E4683420FD3002440F2E7302146084B95
:1079D0004FF47A721F680023E5FB070117F0F4FDEE
:1079E00030602046F8BD2120FCE700BFA019002030
:1079F000AC190020F0B51F46002387B00C46164690
:107A000005468DF8133050B30DF11301FFF76CFFED
:107A10009DF813302BBB204605A9FFF7CDFFE0B939
:107A2000114BE8831B6828465C434FF47A73B4FB20
:107A3000F3F203FB1244191B89B2994208BF0021DB
:107A4000BDF83430A983059A02939DF83030114671
:107A5000CDE900733346FFF76FFE07B0F0BD22207B
:107A6000FBE70220F9E700BFAC190020014B1868C2
:107A7000704700BFA01900200F4B10B51A689AB1CB
:107A80004FF47A71531E1342A0FB01010ED1B2FADA
:107A900082F2C2F11F04531CD243E04001FA03F307
:107AA000184321FA02F20243104610BD002317F0DA
:107AB0008BFD0246F8E700BFAC190020C2072DE994
:107AC000F04704460BD5474A138801339BB2138015
:107AD000FFF7BEFD444B1B680BB1FFF7FFFDA3078B
